:03000000020800F3
:0C080000787FE4F6D8FD758109020847F6
:0408E000020800000A
:1008C600E4F5B075890975B80275A88275A0FE753C
:0A08D6008A05758C3775881080FEC6
:03000B0002088C5C
:10088C00C0E0C0D075D000C0070509E509700205AD
:10089C0008640A4508701CE5A025E0FFE5A0C41318
:1008AC00131354014FF5A0750800750900758A05DE
:0A08BC00758C37D007D0D0D0E032A1
:10080C000208C6E493A3F8E493A34003F68001F234
:10081C0008DFF48029E493A3F85407240CC8C333ED
:10082C00C4540F4420C8834004F456800146F6DFBC
:10083C00E4800B01020408102040809008E0E47E64
:10084C00019360BCA3FF543F30E509541FFEE493B1
:10085C00A360010ECF54C025E060A840B8E493A378
:10086C00FAE493A3F8E493A3C8C582C8CAC583CAA3
:10087C00F0A3C8C582C8CAC583CADFE9DEE780BE5B
:0108E4000013
:00000001FF
