:03000000020A4BA6
:0C0A4B00787FE4F6D8FD758156020A920F
:10080000453934303836303736000D0A4C434420F1
:100810006F6E0D0A0053687574646F776E4E000D2D
:100820000A4C4344206F66660D0A0062726967686D
:1008300074303030000D0A73637265656E20627229
:10084000696768746E6573732064696D730D0A005F
:10085000627269676874303031000D0A73637265C3
:10086000656E206272696768746E65737320627268
:100870006967687465720D0A0020202020202020FE
:100880002020202020202020202020202020202068
:100890002045393430383630373600426573742895
:1008A000342920202020202020202020202020202B
:1008B0002020202020202020202020202020202038
:1008C000202020576F727374283729005468616E96
:1008D0006B732100FF0800FF080AFF0815FF081FBF
:0C08E000FF082BFF0835FF0850FF085AE6
:100D2500C185C18301350002530000022103E80299
:100D3500510000C102C100C101C18410360000008C
:100D45000A000A00000011000E0000000010250036
:0F0D550000000A001F001F000E00040000000035
:1008EC00120D650209693005FDC2059008D4120C81
:1008FC009DEF4E60549008D7120DC4E4F5907FA084
:10090C007E86120E14120D65D200754F00755002C2
:10091C007B007A0079367F407E00120CE37B007AF4
:10092C000079257F487E00120CE3E4FDFC7F80FEFD
:10093C00120E017D017C007F8F7E00120E017BFF69
:10094C007A087979120D9D809D9008DA120C9DEF32
:10095C004E60139008DD120DC4C202C2007590FFE8
:10096C0075A0FF0208F29008E0120C9DEF4E60118A
:10097C00E55015507002154F9008E3120DC4020893
:10098C00F29008E6120C9DEF4E70030208F205502F
:0F099C00E5507002054F9008E9120DC40208F2F1
:100D6500E4FDFC7F38120DEDE4FDFC7F0F120DED67
:100D7500E4FDFC7F06120DED120DE8E4FDFC7F801D
:100D8500120DED75A89775B802758922758850758D
:080D95009850758DE6D28E2204
:050DE800E4FDFC7F01A9
:100DED008FA0EC4D24FF9296D2977FE87E03120ED2
:040DFD0014C2972263
:100D9D008B108A118912AB10AA11A9121209CDFF5D
:100DAD0060147D017C00120DED74012512F512E425
:070DBD003511F51180E02261
:03000B00020B5C89
:100B5C00C0E0C0F0C083C082C0D075D000C000C05F
:100B6C0001C002C003C004C005C006C00730022C7F
:100B7C000556E55670020555C39522E5216480F8AB
:100B8C00E5556480984015E4FDFC3001047F1C8021
:100B9C00027F18120DED755500755600300018C205
:100BAC0093E52445237008D293854F23855024E583
:100BBC0024152470021523D007D006D005D004D0FC
:100BCC0003D002D001D000D0D0D082D083D0F0D0CE
:020BDC00E03205
:03002300020C3F8D
:100C3F00C0E0C0F0C083C082C0D075D000C000C07B
:100C4F0001C002C003C004C005C006C00730981F12
:100C5F00C298AF35053574462FF8A699E53575F06E
:100C6F00091209AB85F035E5357008D2058004C24D
:100C7F0099D203D007D006D005D004D003D002D02C
:0E0C8F0001D000D0D0D082D083D0F0D0E0329F
:0B0DC400E493FB740193FA740293F9AE
:100DCF001209CD60133003FDC2031209CDF59974DA
:090DDF000129F9E43AFA80E82246
:0B0C9D00E493FB740193FA740293F9D6
:100CA8008B088A09890AE4F553F554AB08AA09A9FF
:100CB8000A8554828553831209E6FF74462554F841
:100CC800E66F6004E4FEFF220554E5547002055304
:0B0CD8006409455370D57E007F0122A7
:03000300020BDE0F
:100BDE00C0E0C0F0C083C082C0D075D000C000C0DD
:100BEE0001C002C003C004C005C006C0077F207E3E
:100BFE004E120E14C202A204B39204E4FDFC3004A1
:100C0E00047F0F80027F08120DED120DE87BFF7A34
:100C1E0008799B120D9DD007D006D005D004D003C5
:100C2E00D002D001D000D0D0D082D083D0F0D0E08E
:010C3E003283
:03001300020AD707
:100AD700C0E0C0F0C083C082C0D075D000C000C0E5
:100AE70001C002C003C004C005C006C0077F207E46
:100AF7004E120E14E55245517018C202120DE97BD1
:100B0700FF7A0879CC120D9D0552E552702C0551DC
:100B17008028E552640145517014C201D202752143
:100B2700037522E80552E55270100551800C7521B6
:100B3700017522F4755100755200D007D006D00513
:100B4700D004D003D002D001D000D0D0D082D0833F
:050B5700D0F0D0E032F7
:060CE3008B088A09890A52
:100CE900E4FDFC120DEDE4F50BF50CE50C25E0FF38
:100CF900E50B33AB08AA09A90A8F82F583120A13F7
:100D0900FF7D017C00120DED050CE50C7002050B51
:0B0D1900C39408E50B6480948040D078
:010D240022AC
:100E01008C088D09E4FDFC120DEDAF097D017C001C
:030E1100020DEDE2
:0B0E1400EF1FAC0670011E4C70F622B0
:100A57000208ECE493A3F8E493A34003F68001F2C1
:100A670008DFF48029E493A3F85407240CC8C333A0
:100A7700C4540F4420C8834004F456800146F6DF6F
:100A8700E4800B0102040810204080900D25E47ECD
:100A9700019360BCA3FF543F30E509541FFEE49364
:100AA700A360010ECF54C025E060A840B8E493A32B
:100AB700FAE493A3F8E493A3C8C582C8CAC583CA56
:100AC700F0A3C8C582C8CAC583CADFE9DEE780BE0E
:010D6400008E
:1009AB00C2D530F707B2D563F0FF05F030E70CB2D4
:1009BB00D5F4048463F0FF05F080018430D502F494
:0209CB00042204
:1009CD00BB010689828A83E0225002E722BBFE0228
:0909DD00E32289828A83E493225B
:1009E600BB010CE58229F582E5833AF583E02250C6
:1009F60006E92582F8E622BBFE06E92582F8E22210
:0D0A0600E58229F582E5833AF583E4932229
:100A1300BB0110E58229F582E5833AF583E0F5F021
:100A2300A3E0225009E92582F886F008E622BBFEFE
:100A33000AE92582F8E2F5F008E222E5832AF58344
:080A4300E993F5F0A3E9932209
:00000001FF
