:0300000002093DB5
:0C093D00787FE4F6D8FD75811C02098467
:1009C9000815636F727265637400060B77726F6E38
:0E09D900670002080000021100000213000077
:0509F7001209E880FE7A
:0F09E800759850758920758DE6D28E75A890226E
:03002300020800D0
:10080000C0E0C0D075D000C000C006C0073098FD61
:10081000C29885990A850AA0E50AB445080509E544
:100820000970020508E50AB43910E50964014508B4
:1008300070080509E50970020508E50AB43410E5F9
:10084000096402450870080509E50970020508E514
:100850000AB43010E5096403450870080509E50984
:1008600070020508E50AB43810E50964044508700B
:10087000080509E50970020508E50AB43610E5091E
:100880006405450870080509E50970020508E50AD0
:10089000B43010E5096406450870080509E50970DB
:1008A000020508E50AB43710E50964074508700831
:1008B0000509E50970020508E50AB43610E5096482
:1008C00008450870080509E50970020508AF0AEF38
:1008D0003395E0FEEF640D4E705875990A3099FD1E
:1008E000C299E509640945087021F511F5127415DE
:1008F0002512F8E6F5993099FDC2990512E51270B6
:100900000205116408451170E58021751300751406
:1009100000740B2514F8E6F5993099FDC299051479
:10092000E514700205136406451370E5750800753B
:0D0930000900D007D006D000D0D0D0E032B2
:100949000209F7E493A3F8E493A34003F68001F2C4
:1009590008DFF48029E493A3F85407240CC8C333AF
:10096900C4540F4420C8834004F456800146F6DF7E
:10097900E4800B01020408102040809009C9E47E3C
:10098900019360BCA3FF543F30E509541FFEE49373
:10099900A360010ECF54C025E060A840B8E493A33A
:1009A900FAE493A3F8E493A3C8C582C8CAC583CA65
:1009B900F0A3C8C582C8CAC583CADFE9DEE780BE1D
:0109E700000F
:00000001FF
