:0300000002089261
:0C089200787FE4F6D8FD75810A020800AA
:0E08840048656C6C6F2C20776F726C642100DD
:100800007F3812086D7F0F12086DE4FDFC7F061221
:100810000870E4FDFC7F01120870E4FDFC7F80128B
:0D08200008707BFF7A08798412082D80FE95
:10082D008B088A09890AAB08AA09A90A120854FF7C
:10083D0060147D017C001208707401250AF50AE42C
:07084D003509F50980E022E6
:03086D00E4FDFCAB
:100870008F90EC4D24FF92B0D2B17F647E001208BD
:040880009EC2B12241
:0B089E00EF1FAC0670011E4C70F6222C
:10085400BB010689828A83E0225002E722BBFE02A2
:09086400E32289828A83E49322D5
:00000001FF
