:0300000002090BE7
:0C090B00787FE4F6D8FD75810D0208E04D
:1008F700010C0206040308090908030406020C0197
:0409070003E801F40C
:1008E00075A885758805750800750901750A007574
:0708F0000B0112080080FB60
:0300030002085C94
:10085C00C0E0C0F0C083C082C0D075D000C000C062
:10086C0001C002C003C004C005C006C0077F647E7F
:10087C0000120917630B01D007D006D005D004D0A5
:10088C0003D002D001D000D0D0D082D083D0F0D011
:02089C00E03248
:0300130002089E42
:10089E00C0E0C0F0C083C082C0D075D000C000C020
:1008AE0001C002C003C004C005C006C0077F647E3D
:1008BE0000120917630901D007D006D005D004D065
:1008CE0003D002D001D000D0D0D082D083D0F0D0CF
:0208DE00E03206
:10080000E4F50CF50DAE0AE50B7803C333CE33CE19
:10081000D8F924F7F58274083EF583E582250DF5B5
:1008200082E583350CF583E493F590E50925E0FF37
:10083000E50833FE74072FF58274093EF583E493CF
:10084000FE740193FF120917050DE50D7002050CEA
:0B085000C39408E50C6480948040AA6B
:01085B00227A
:0B091700EF1FAC0670011E4C70F622B2
:00000001FF
