:03000000020800F3
:0C080000787FE4F6D8FD75811C020847E3
:0A09E0004539343038363037360020
:1009C20010080000000A000A00000011000E0000DA
:0209D200000023
:1008DD007F381209AB7F0F1209ABE4FDFC7F0512C7
:1008ED0009AEE4FDFC7F011209AEE4FDFC7F801230
:1008FD0009AE7BFF7A0979E01209627B007A0079F3
:10090D00087F407E00120920E4FDFC7FCFFE120916
:03091D008980FED0
:100962008B188A19891AAB18AA19A91A12088CFFAE
:1009720060147D017C001209AE7401251AF51AE497
:070982003519F51980E02290
:100989008E188F198C1A8D1BAF19E4FDFC1209AE54
:10099900AF1B7D017C001209AE7F407E1F1209D575
:0209A90080E6E6
:060920008B188A19891AE8
:10092600E4FDFC1209AEE4F51BF51CE51C25E0FF11
:10093600E51B33AB18AA19A91A8F82F5831208A5ED
:10094600FF7D017C001209AE051CE51C7002051B2B
:0B095600C39408E51B6480948040D02F
:010961002273
:0309AB00E4FDFC6C
:1009AE008F90EC4D24FF92B0D2B17F647E0012097D
:0409BE00D5C2B122CB
:0B09D500EF1FAC0670011E4C70F622F4
:10080C000208DDE493A3F8E493A34003F68001F21D
:10081C0008DFF48029E493A3F85407240CC8C333ED
:10082C00C4540F4420C8834004F456800146F6DFBC
:10083C00E4800B01020408102040809009C2E47E81
:10084C00019360BCA3FF543F30E509541FFEE493B1
:10085C00A360010ECF54C025E060A840B8E493A378
:10086C00FAE493A3F8E493A3C8C582C8CAC583CAA3
:10087C00F0A3C8C582C8CAC583CADFE9DEE780BE5B
:0109D4000022
:10088C00BB010689828A83E0225002E722BBFE026A
:09089C00E32289828A83E493229D
:1008A500BB0110E58229F582E5833AF583E0F5F091
:1008B500A3E0225009E92582F886F008E622BBFE6E
:1008C5000AE92582F8E2F5F008E222E5832AF583B4
:0808D500E993F5F0A3E9932279
:00000001FF
